:100000000C9435000C9452000C9452000C94520045
:100010000C9452000C9452000C9452000C94520018
:100020000C9452000C9452000C9452000C94520008
:100030000C9452000C9452000C9452000C945200F8
:100040000C9452000C9452000C94D0000C94AA0012
:100050000C9452000C9452000C9452000C945200D8
:100060000C9452000C945200F60011241FBECFEFE6
:10007000D8E0DEBFCDBF21E0A0E0B1E001C01D921D
:10008000A035B207E1F710E0C5E3D0E004C0219746
:10009000FE010E941501C433D107C9F70E94540024
:1000A0000C941B010C940000569A5E9AFFCFFC0141
:1000B0002585848530E0281B31092F713078332362
:1000C00034F421503109206E3F6F2F5F3F4F2132B2
:1000D00031052CF00284F385E02D8081089595850B
:1000E000A285B3858C91DF01A90FB11DD0968C93A9
:1000F000858590E001968F719078992324F401977B
:10010000806E9F6F019685870895CF93DF93FC01E2
:10011000978586859817A9F0A285B3858685EF0116
:10012000C80FD11D88898C93868590E001968F71C8
:100130009078992324F40197806E9F6F01968687AB
:1001400006C00280F381E02D80818F7D8083DF9166
:10015000CF9108951F920F920FB60F9211242F93F3
:100160003F934F935F936F937F938F939F93AF933F
:10017000BF93EF93FF9380E091E00E948500FF9191
:10018000EF91BF91AF919F918F917F916F915F910F
:100190004F913F912F910F900FBE0F901F90189588
:1001A0001F920F920FB60F9211242F933F934F93EC
:1001B0005F936F937F938F939F93AF93BF93EF93CF
:1001C000FF9380E091E00E945700FF91EF91BF9173
:1001D000AF919F918F917F916F915F914F913F91DF
:1001E0002F910F900FBE0F901F901895E0E0F1E057
:1001F00080EC90E09183808381EC90E09383828314
:1002000082EC90E09583848385EC90E097838683ED
:1002100084EC90E09187808786EC90E093878287DA
:1002200014861686158617860895EE0FFF1F059013
:0A023000F491E02D0994F894FFCF3B
:00000001FF
