S0150000526164696F20736E69666665722E7372656313
S11300000C945B000C9485000C9483000C94E50024
S11300100C9483000C9483000C9483000C94830050
S11300200C9483000C9483000C9483000C941601AC
S11300300C9483000C9483000C9483000C94830030
S11300400C9483000C9483000C9483000C94830020
S11300500C9483000C9483000C9483000C94830010
S11300600C9483000C9483000C9483000C94830000
S11300700C9483000C9483000C9483000C948300F0
S11300800C9483000C9483000C9483000C948300E0
S11300900C9483000C9483000C9483000C948300D0
S11300A00C9483000C9483000C9483000C948300C0
S11300B00C948300CC0111241FBECFEFD8E0DEBF27
S11300C0CDBF11E0A0E0B1E0E2E1F4E002C00590B0
S11300D00D92A630B107D9F721E0A6E0B1E001C046
S11300E01D92A134B207E1F710E0CBE5D0E004C0E3
S11300F02197FE010E940102CA35D107C9F70E9467
S113010027010C9407020C9400001F920F920FB663
S11301100F9211242F938F939F93EF93FF938091CA
S11301200701813089F018F08230C9F144C010927F
S113013085001092840083E0809369008091070118
S11301408F5F8093070137C0809184009091850070
S1130150843C994040F4E0910801F0E0E75FFE4FF1
S113016080E3808307C0E0910801F0E0E75FFE4F81
S113017081E38083809108018F5F8093080110924E
S1130180850010928400B19A82E080936F0080937E
S11301906900809107018F5F809307010CC0109262
S11301A06F00109285001092840083E080936900B0
S11301B081E080930701FF91EF919F918F912F919F
S11301C00F900FBE0F901F9018951F920F920FB6AD
S11301D00F9211248F939F9383B190E0880F892FFE
S11301E0881F990B892BD9F48091060181110FC0C6
S11301F08091070181110BC081E08093060192E098
S1130200909369008DBB2D9A1092080108C010923A
S113021006011DBA10926F002D98109207019F914C
S11302208F910F900FBE0F901F9018951F920F92F1
S11302300FB60F9211248F9310926F0083E0809376
S113024007018F910F900FBE0F901F901895CF93B9
S1130250DF9300D000D000D0CDB7DEB740E950ED39
S113026063E070E085E391E00E94780186E0E0E0DD
S1130270F1E0DE01119601900D928A95E1F746E0D6
S1130280BE016F5F7F4F85E391E00E94B5015298F4
S11302902798259A88E092E59093890080938800B6
S11302A081E08093810090E890936B0080936800D4
S11302B078948093060192E0909369008DBB2D9A07
S11302C010920801809107018330E1F74091080101
S11302D069E071E085E391E00E94B5016AE085E39D
S11302E091E00E94A8011092080110920701EACF40
S11302F0FC01411582EC580781E06807710579F02B
S1130300403980ED580783E06807710531F04115E5
S1130310514E6105710539F404C087E005C080E1E0
S113032003C082E201C08FECA681B7811C92A08534
S1130330B1858C93A081B18182E08C93A281B38139
S113034088E18C930480F581E02D8EE0808308950C
S1130350DC01ED91FC911197908195FFFDCF1A96E8
S1130360ED91FC911B9760830895CF93DF93EC018B
S1130370442379F0DB01640F711DE881F9819081D8
S113038095FFFDCFEA85FB858D918083A617B7077E
S1130390A1F7DF91CF910895E5E3F1E080EC90E0DF
S11303A09183808381EC90E09383828382EC90E05C
S11303B09583848385EC90E09783868384EC90E036
S11303C09187808786EC90E093878287E9E2F1E069
S11303D088EC90E09183808389EC90E0938382831E
S11303E08AEC90E0958384838DEC90E097838683F8
S11303F08CEC90E0918780878EEC90E093878287E5
S11304000895EE0FFF1F0590F491E02D0994F894E0
S1050410FFCF18
S109041273746172740AA8
S9030000FC
